:020000040800F2
:10000000F0210020E52D00083D2C0008452C0008BB
:10001000472C0008492C00084B2C00080000000069
:100020000000000000000000000000004D2C00084F
:100030004F2C000800000000512C0008532C000831
:10004000112E0008152E0008192E00081D2E00087C
:10005000212E0008252E0008292E00082D2E00082C
:100060005B2C0008652C0008312E0008352E000896
:10007000392E00083D2E0008412E0008452E0008AC
:10008000492E00084D2E0008512E0008552E00085C
:10009000592E00085D2E0008612E0008652E00080C
:1000A000692E00086D2E0008712E0008752E0008BC
:1000B000792E00086F2C00087D2E0008812E000884
:1000C000852E0008892E00088D2E0008912E00082C
:1000D000952E0008992E00089D2E0008A12E0008DC
:1000E000A52E0008A92E0008AD2E0008B12E00088C
:1000F000B52E0008B92E0008000000000000000026
:100100000000000000000000BD2E0008C12E000805
:100110000000000000000000C52E0008C92E0008E5
:10012000CD2E0008D12E0008D52E0008D92E0008AB
:10013000DD2E0008E12E0008E52E0008E92E00085B
:10014000ED2E00080000000000000000000000008C
:10015000000000000000000000000000000000009F
:100160000000000000000000F12E0008F52E00083D
:10017000F92E000800000000FD2E0008000000001D
:1001800000000000012F00082DE9F8430400002CB6
:1001900001D1012030E32078C00740F1BE80DFF8B4
:1001A000F808016811F00C0104290AD0016811F067
:1001B0000C01082928D1006810F48030B0F5803F88
:1001C00022D14FF48040B0FA80F151F02001C9B241
:1001D0004909012903D1DFF8BC18096806E0B0FA23
:1001E00080F1B0FA80F1DFF8CC180968B0FA80F03D
:1001F00010F01F00C140C80740F18F8060680028E0
:1002000040F08B800120F7E26068B0F5803F06D1B6
:10021000DFF88008016851F48031016026E06068F1
:1002200000280AD1DFF86C08016831F480310160E0
:10023000016831F48021016018E06068B0F5A02FFA
:100240000AD1DFF85008016851F48021016001688B
:1002500051F48031016009E0DFF83808016831F4B9
:1002600080310160016831F480210160DFF83818C5
:100270000A6812091201A06802430A606068002837
:1002800025D000F04DFC05004FF48040B0FA80F11D
:1002900051F02001C9B24909012903D1DFF8F4174F
:1002A000096806E0B0FA80F1B0FA80F1DFF80418CE
:1002B0000968B0FA80F010F01F00C140C8072CD4C4
:1002C00000F02EFC401B6528DED3032094E200F0F2
:1002D00027FC05004FF48040B0FA80F151F0200176
:1002E000C9B24909012903D1DFF8A817096806E056
:1002F000B0FA80F1B0FA80F1DFF8B8170968B0FA07
:1003000080F010F01F00C140C80706D500F008FCBF
:10031000401B6528DED303206EE2207880073CD5A1
:10032000DFF87407016811F00C0F07D0016811F0B5
:100330000C01082960D10068C0035DD45FF08040E3
:10034000B0FA80F151F02001C9B24909012903D165
:10035000DFF84017096806E0B0FA80F1B0FA80F1E2
:10036000DFF850170968B0FA80F010F01F00C140A4
:10037000C80704D52069012801D001203CE2DFF83C
:10038000140701685FF0F852B2FA82F231F0F80116
:10039000636913FA02F2114301602078000740F10B
:1003A000C480A069002800F09A8001205FF000411D
:1003B000B1FA81F1DFF8F82612EB8102106000F04B
:1003C000AFFB05005FF08040B0FA80F1B0FA80F139
:1003D000B0FA80F1DFF8DC160968B0FA80F010F0AE
:1003E0001F00C140C80700F1A08000F099FB401B2E
:1003F0000328E7D30320FFE1206900283ED0012035
:100400005FF00041B1FA81F1DFF8AC2612EB810216
:10041000106000F085FB05005FF08040B0FA80F1CD
:1004200051F02001C9B24909012903D1DFF864164E
:10043000096806E0B0FA80F1B0FA80F1DFF87416CE
:100440000968B0FA80F010F01F00C140C80706D458
:1004500000F066FB401B0328DED30320CCE1DFF86D
:10046000340601685FF0F852B2FA82F231F0F80116
:10047000636913FA02F2114301608EE700205FF016
:100480000041B1FA81F1DFF8302612EB81021060F1
:1004900000F046FB05005FF08040B0FA80F151F0BB
:1004A0002001C9B24909012903D1DFF8E81509681B
:1004B00006E0B0FA80F1B0FA80F1DFF8F8150968CB
:1004C000B0FA80F010F01F00C140C8077FF565AF9B
:1004D00000F026FB401B0328DDD303208CE1002025
:1004E0005FF00041B1FA81F1DFF8C42512EB81021F
:1004F000106000F015FB05005FF08040B0FA80F15D
:10050000B0FA80F1B0FA80F1DFF8A8150968B0FA06
:1005100080F010F01F00C140C80706D500F000FBB6
:10052000401B0328E8D3032066E12078400740F110
:10053000B1800026DFF884552868C00009D42868F7
:1005400050F080502860286810F08050009000988B
:100550000126DFF86C753868C00511D4386850F48E
:100560008070386000F0DCFA80463868C00507D437
:1005700000F0D6FAB0EB08006528F6D303203BE183
:10058000E068012806D1DFF83C05016851F001015F
:10059000016025E0E06800280AD1DFF8280501683D
:1005A000490849000160016831F00401016017E069
:1005B000E06805280AD1DFF80C05016851F0040154
:1005C0000160016851F00101016009E0DFF8F40405
:1005D0000168490849000160016831F004010160C7
:1005E000E068002827D000F09BFA07005FF0804009
:1005F000B0FA80F1B0FA80F151F04001C9B2490976
:10060000022903D1DFF8BC14096804E0B0FA80F1D4
:10061000DFF8A0140968B0FA80F010F01F00C140A4
:10062000C80730D400F07CFAC01B41F289318842FF
:10063000DCD30320E0E000F073FA07005FF08040B5
:10064000B0FA80F1B0FA80F151F04001C9B2490925
:10065000022903D1DFF86C14096804E0B0FA80F1D4
:10066000DFF850140968B0FA80F010F01F00C140A4
:10067000C80708D500F054FAC01B41F289318842FE
:10068000DCD30320B8E0F6B2012E03D1286830F0A5
:1006900080502860E069002800F0AD80DFF8F86342
:1006A000306810F00C00082800F09380E069022800
:1006B00061D18027DFF800840020B7FA87F118EBBA
:1006C0008101086000F02CFA81464025B5FA85F0DA
:1006D00050F02000C0B24009012803D1DFF8B40374
:1006E000006806E0B5FA85F0B5FA85F0DFF8C403D6
:1006F0000068B5FA85F111F01F01C840C00707D5A1
:1007000000F00EFAB0EB09000328DED3032073E0FB
:10071000316831F47411606A0143206A0143316029
:100720000120B7FA87F118EB8108C8F8000000F043
:10073000F7F90400B5FA85F050F02000C0B2400986
:10074000012803D1DFF84C03006806E0B5FA85F014
:10075000B5FA85F0DFF85C030068B5FA85F111F0B1
:100760001F01C840C00746D400F0DAF9001B032877
:10077000E0D3032040E000208021B1FA81F1DFF8CE
:10078000382312EB8102106000F0CAF90400402007
:10079000B0FA80F151F02001C9B24909012903D111
:1007A000DFF8F012096806E0B0FA80F1B0FA80F1E3
:1007B000DFF800130968B0FA80F010F01F00C140A4
:1007C000C80718D500F0ACF9001B0328DFD30320BD
:1007D00012E0E069012801D101200DE0306810F439
:1007E0008031226A914204D110F47010616A88420B
:1007F00001D0012000E00020BDE8F2832DE9F041A6
:1008000004000D000020002C01D10120D2E0DFF80F
:10081000B862306810F00700A8420BD23068C008F8
:10082000C00028433060306810F00700A84201D0B3
:100830000120BFE02078800707D5DFF85C120A6846
:1008400032F0F002A06802430A602078C00776D533
:10085000606801281DD14FF48040B0FA80F151F05A
:100860002001C9B24909012903D1DFF8281209681A
:1008700006E0B0FA80F1B0FA80F1DFF838120968CA
:10088000B0FA80F010F01F00C140C8073CD401202E
:1008900090E0606802281BD14020B0FA80F151F04E
:1008A0002001C9B24909012902D17A49096806E043
:1008B000B0FA80F1B0FA80F1DFF8F8110968B0FA07
:1008C00080F010F01F00C140C8071DD4012071E066
:1008D0005FF08040B0FA80F151F02001C9B24909BF
:1008E000012902D16B49096805E0B0FA80F1B0FA3C
:1008F00080F170490968B0FA80F010F01F00C14023
:10090000C80701D4012055E0634F39688908890080
:1009100060680143396000F003F98046386810F0E0
:100920000C006168B0EB810F09D000F0F9F8B0EB72
:10093000080041F289318842F0D303203AE0306860
:1009400010F0070085420BD23068C008C000284371
:100950003060306810F00700A84201D0012029E083
:100960002078400706D54C490A6832F4E062E06816
:1009700002430A602078000707D54748016831F430
:100980006051226951EAC201016000F01FF842493A
:1009900009684E4A11F0F0015FF07063B3FA83F317
:1009A000D940515CC8403E4908603E48006800F0AC
:1009B000BDF80020BDE8F08101204FF48051B1FA6C
:1009C00081F13D4A12EB81021060704710B40020A3
:1009D00000200020002000202F48016811F00C00AA
:1009E000042802D0082802D021E02C4820E0384812
:1009F00011F470124FF47053B3FA83F3DA40805C51
:100A0000294A1268334B12F00F025FF07044B4FAB7
:100A100084F4E2409A5CC90306D52049B1FBF2F2A6
:100A200001001000484301E02B49484300E01B4807
:100A300010BC70471A480068704780B5FFF7FAFF8E
:100A400015490968254A11F4E0615FF46003B3FABF
:100A500083F3D940515CC84002BD80B5FFF7EAFF7F
:100A60000D4909681D4A11F460515FF4E013B3FAAF
:100A700083F3D940515CC84002BD80B50B48006883
:100A8000000604D500F02EF880201549087001BD3D
:100A900000000000001002400410024000127A0022
:100AA0009C000020980000202C10024008100240FA
:100AB0008004424224100240000042421C100240C6
:100AC000007000402010024000200240D42D000899
:100AD000B42D0008C42D000800093D00002E0008B8
:100AE0000A100240704730B4002513E050F8042B80
:100AF000D30744BFA9F101039A18091F042942F83A
:100B0000045BFAD213468C0744BF15809B1CC907AF
:100B100048BF1D7050F8041B0029E7D130BC704756
:100B200001480068704700BFE801002010B50400CC
:100B30004FF47A700D490978B0FBF1F00C4909685F
:100B4000B1FBF0F000F099F8002801D001200CE092
:100B5000102C09D2002221005FF0FF3000F077F85E
:100B600004480460002000E0012010BDA000002027
:100B70009C0000209800002010F00700414B1A68EC
:100B80004FF6FF010A40404951EA00210A431A602A
:100B900070473C480068C0F302207047010049B22A
:100BA000002908D4012210F01F018A40374940B2C1
:100BB000400941F820207047020052B2002A04D4B4
:100BC0000901334A40B2115407E00901314A40B2E9
:100BD00010F00F00104400F8041C704710B410F01F
:100BE0000700D0F10703052B01D3042301E0D0F166
:100BF0000703041D072C01D2002000E0C01E0124C1
:100C000014FA03F35B1E1940814014FA00F0401EF1
:100C10001040084310BC704780B5411EB1F1807F81
:100C200001D301200EE0401E1B4908600F215FF038
:100C3000FF30FFF7C1FF002018490860072018495E
:100C40000860002002BD80B5FFF796FF01BD70B5BA
:100C500004000D0016000020FFF79BFF3200290062
:100C6000FFF7BCFF0100200040B2FFF7A5FF70BDF9
:100C700080B540B2FFF792FF01BD80B5FFF7CCFF12
:100C800002BD00000CED00E00000FA0500E100E00C
:100C900000E400E018ED00E014E000E018E000E0FF
:100CA00010E000E010B50400002C01D1012060E04C
:100CB000606A00280020A06294F85D00002805D139
:100CC000002084F85C00200000F0BBFB022084F8C8
:100CD0005D002068006830F040002168086040F244
:100CE0000172E068904201D3002101E04FF480518D
:100CF000E068B0F5706F05D0E068B0F5E06F01D046
:100D00000020A062206B002807D1E068904202D347
:100D10000220206301E0012020636268A068024392
:100D20002069024360690243A06910F40070024325
:100D3000E0690243206A0243A06A0243206802601D
:100D4000A269120C12F00402606A0243606B024353
:100D5000E06802431143206841602068C06930F4B4
:100D600000602168C86100202066012084F85D00D1
:100D7000002010BD2DE9F84306000D0091461C002F
:100D800000277068B0F5827F0ED1B06800280BD1C3
:100D9000042086F85D0000944B469BB22A0029008F
:100DA000300000F0B2F8AEE096F85C00012801D106
:100DB0000220A8E0012086F85C00FFF7B1FE804623
:100DC00096F85D00012801D0022794E0002D03D0A1
:100DD000484680B2002801D101278CE0042086F823
:100DE0005D00002030663564A6F84490A6F8469071
:100DF0000020B0630020B0870020F0870020F0645E
:100E00000020306540F20170F168814206D33168FC
:100E1000496831F480513268516005E031684968B1
:100E200051F4805132685160B168B1F5004F05D17D
:100E30003168096831F480413268116031680968AD
:100E4000490605D43168096851F0400132681160E3
:100E5000F16881422DD20BE03068007B316C087064
:100E6000306C401C3064B6F84600401EA6F84600C0
:100E7000B6F84600002831D030688068C007EBD44F
:100E8000FFF74EFEB0EB0800A04202D314F1010FB1
:100E900001D1002CECD103272DE03068C068316C03
:100EA0000880306C801C3064B6F84600401EA6F8FE
:100EB0004600B6F84600002810D030688068C007A9
:100EC000EBD4FFF72DFEB0EB0800A04202D314F1E3
:100ED000010F01D1002CECD103270CE04246210088
:100EE000300000F00DFA002801D020203066306E6E
:100EF000002800D00127012086F85D00002086F838
:100F00005C003800C0B2BDE8F2832DE9F04705006F
:100F10008A4614005FF00108002695F85C0001285D
:100F200001D1022048E19946012085F85C00FFF7D5
:100F3000F7FD070095F85D1068684A464B468C46F9
:100F40005FFA8CFCBCF1010F0AD0B0F5827F05D1AD
:100F5000A868002802D1C9B2042901D0022623E1E1
:100F60005146002906D02000002803D04C46A4B2E8
:100F7000002C01D1012617E195F85D40042C02D028
:100F8000052485F85D4000242C662864A5F8469069
:100F9000A5F84490A963A5F83E90A5F83C900020E0
:100FA000E8640020286540F20170E968814202D2BD
:100FB0009BB2022B06D32968496831F480512B6813
:100FC000596005E02968496851F480512B685960DF
:100FD00029680968490605D42968096851F0400163
:100FE0002B681960089CE96881424DD36868002825
:100FF00002D092B2012A09D1A86B00882968C86082
:10100000A86B801CA863E88F401EE887E88F002843
:1010100004D1B5F84600002800F0BC80286880683C
:10102000800711D5E88F00280ED0B8F1010F0BD141
:10103000A86B00882968C860A86B801CA863E88F2B
:10104000401EE8875FF0000828688068C00711D557
:10105000B5F8460000280DD02868C068296C0880C3
:10106000286C801C2864B5F84600401EA5F8460090
:101070005FF00108FFF754FDC01BA042C6D314F176
:10108000010FC3D003268FE06868002802D092B217
:10109000012A17D1E88F02280AD3A86B0088296893
:1010A000C860A86B801CA863E88F801EE88709E0F1
:1010B000A86B007829680873A86B401CA863E88FA8
:1010C000401EE887E88F002803D1B5F846000028C5
:1010D00060D02868806880071FD5E88F00281CD062
:1010E000B8F1010F19D1E88F02280AD3A86B008844
:1010F0002968C860A86B801CA863E88F801EE887F9
:1011000009E0A86B007829680873A86B401CA863E5
:10111000E88F401EE8875FF0000828688068C007F5
:101120002CD5B5F84600002828D0B5F8460002288E
:1011300016D32868C068296C0880286C801C286435
:10114000B5F84600801EA5F84600B5F8460002280E
:1011500012D22868406850F48050296848600BE03B
:101160002868007B296C0870286C401C2864B5F83E
:101170004600401EA5F846005FF00108FFF7D0FCCE
:10118000C01BA04202D314F1010F01D1002C99D150
:10119000032609E03A002100280000F0F4F80028B6
:1011A00002D0012620202866012085F85D0000205D
:1011B00085F85C003000C0B2BDE8F0872DE9F04151
:1011C00005000E0090461C00069F2868806830408D
:1011D000B04201D1012000E000204146C9B288425E
:1011E00039D014F1010FF0D0FFF79AFCC01BA042D8
:1011F00001D2002CE9D12868406830F0E00029686D
:1012000048606868B0F5827F0DD1A868B0F5004FDE
:1012100003D0A868B0F5806F05D12868006830F069
:10122000400029680860A86AB0F5005F0BD1286803
:10123000006830F40050296808602868006850F49D
:10124000005029680860012085F85D00002085F8BD
:101250005C00032000E00020BDE8F0812DE9F041B2
:1012600006000F0014001D00DDF81880306880684B
:101270003840A04241D0B7F5C06F03D1002C01D156
:101280003068007B15F1010FF0D0FFF749FCB0EB9F
:101290000800A84201D2002DE8D13068406830F043
:1012A000E000316848607068B0F5827F0DD1B068A9
:1012B000B0F5004F03D0B068B0F5806F05D130684D
:1012C000006830F0400031680860B06AB0F5005F37
:1012D0000BD13068006830F4005031680860306825
:1012E000006850F4005031680860012086F85D0005
:1012F000002086F85C00032000E00020BDE8F081BB
:101300007CB504000D0016006068B0F5827F0DD139
:10131000A068B0F5004F03D0A068B0F5806F05D18C
:101320002068006830F040002168086000962B00BB
:10133000002280212000FFF741FF002805D0206E09
:1013400050F02000206603201CE06068B0F5827F2A
:1013500017D1A068B0F5004F03D0A068B0F5806F3A
:101360000FD100962B0000224FF4C0612000FFF740
:1013700075FF002805D0206E50F020002066032065
:1013800000E0002076BD7CB504000D00160000963C
:101390002B0000224FF4C0512000FFF75FFF002810
:1013A00005D0206E50F02000206603201FE000963C
:1013B0002B00002280212000FFF700FF002805D02D
:1013C000206E50F020002066032010E000962B00D5
:1013D00000224FF4C0612000FFF740FF002805D035
:1013E000206E50F020002066032000E0002076BD33
:1013F00080B52C482C4901604FF4827141604FF454
:10140000806181604FF47061C16000210161012140
:1014100041614FF4007181611821C16100210162B5
:1014200000214162002181620721C1620021016324
:1014300000214163FFF736FC002801D000F0F2F8EC
:1014400001BD10B586B0040001A8142100F0ECF82D
:1014500020681549884222D11448016851F480510E
:101460000160006810F480500090009810480168F6
:1014700051F400310160006810F4003000900098D1
:10148000602001900220029000200390032004902D
:101490000520059001A95FF0904000F0C9F806B062
:1014A00010BD00002401002000300140181002404F
:1014B0001410024070B500F0C3F900F033F800F0EA
:1014C000D1F900F043FAFFF793FF00F06BFA00F058
:1014D000C1FA4B4800F032FB4A4C0121206800F071
:1014E0004EFD494D0121286800F049FD474E01217C
:1014F000306800F044FD4648C168FF2905D3C16843
:10150000FF2905D30021C16002E0C168491CC16008
:10151000206800F00DFD286800F00AFD306800F03A
:1015200007FDE8E780B59AB005A8282100F07CF80F
:101530006846142100F078F80FA82C2100F074F808
:1015400000F098FD3348016831F018010160052072
:1015500005905FF4803006900021079101210891E9
:101560000121099102210C910D905FF4E0100E9081
:1015700005A8FEF709FE002801D000F053F80F205F
:10158000009002200190002002904FF480600390B0
:101590000020049002216846FFF730F9002801D0AE
:1015A00000F040F85FF001100F90002011904FF410
:1015B000807010900FA800F065FD002801D000F0A9
:1015C00031F8FFF7F9F91BB000BD80B580B20428EF
:1015D00014D11148007D002808D11048006800F09F
:1015E00059FE0F48006800F055FE07E00B48006800
:1015F00000F063FE0A48006800F05FFE01BD0000D5
:10160000880100201C0000203C0000205C0000201D
:101610007C000020201002406000002078000020A4
:101620009400002070470000002200F063BE00001C
:10163000F8B40200002435E0052704E0DFF8D431D7
:101640009A42F9D1042714F00303DBB29B009F40B8
:101650003E4323009B0845F82360DFF8BC512B680C
:1016600083434E68F60300D503432B60DFF8AC518B
:101670002B6883434E68B60300D503432B60DFF825
:10168000A0512B6883434E68F60200D503432B60BC
:10169000644D2B6883434E68B60201D5184303009E
:1016A0002B60641C0868E040002800F09A80012547
:1016B000086815FA04F318400028F2D04B68022B92
:1016C00002D04B68122B17D12300DB0802EB8303F7
:1016D0001E6A0F2714F00703DBB29B009F40BE4336
:1016E0000F6914F00703DBB29B009F403E432300C9
:1016F000DB0802EB83031E62176803262300DBB2BC
:101700005B0016FA03F39F4391F804C01CF0030C2E
:101710002300DBB25B001CFA03FC5CEA07071760DE
:101720004B68012B08D04B68022B05D04B68112B5E
:1017300002D04B68122B19D197682300DBB25B00F3
:1017400016FA03F39F43D1F80CC02300DBB25B0011
:101750001CFA03FC5CEA070797605368A540AB439B
:101760004D68C5F30015A5402B435360D568230091
:10177000DBB25B009E40B5438E682300DBB25B00AA
:101780009E403543D5604B68DB008AD5264B1D68EB
:1017900055F001051D601B6813F001030093009BC9
:1017A000224D23009B0855F823600F2714F00303F4
:1017B000DBB29B009F40BE43B2F1904F01D10027A6
:1017C00041E71B4B9A4201D101273CE7194B9A4252
:1017D00001D1022737E7184B9A427FF42FAF032736
:1017E00031E7F1BC7047D2B2002A02D089B28161E0
:1017F00001E089B28162704780B510490A68030030
:101800009BB21A4205D0020092B20A6080B2FFF782
:10181000DCFE01BD0010004800040140040401404A
:10182000080401400C040140181002400800014067
:101830000004004800080048000C0048140401405F
:1018400080B50748016851F0100101600320FFF7DF
:10185000FAF90020FFF76AF900F066FD002002BDEA
:101860000020024010B586B068461421FFF7DCFE68
:101870003348016851F400210160016811F400212E
:1018800005910599016851F480010160016811F426
:10189000800105910599016851F4003101600168EA
:1018A00011F4003105910599016851F4802101601E
:1018B000006810F4802005900598002213215FF045
:1018C0009040FFF790FF1F4C002207212000FFF7F8
:1018D0008AFF132000900120019000200290002038
:1018E000039069465FF09040FFF7A2FE0C20009045
:1018F000154801900020029069465FF09040FFF784
:1019000097FE072000900120019000200290032004
:10191000039069462000FFF78BFE0022002108207B
:10192000FFF795F90820FFF7A3F90022002109200D
:10193000FFF78DF90920FFF79BF906B010BD00BF36
:1019400014100240000400480000211080B5124825
:1019500012490160002141607F218160FF21C16047
:1019600000210161002141610021816100F0F8FC4A
:10197000002801D0FFF756FE01BD006807498842E4
:1019800008D101205FF48031B1FA81F1044A12EBF1
:101990008102106070470000C8010020002800404C
:1019A0000004424280B52748274901604FF41641A0
:1019B0004160002181600021C160002101610C2192
:1019C0004161002181610021C1610021016200218A
:1019D000416200F065FD002801D0FFF723FE01BD44
:1019E00010B586B0040001A81421FFF71DFE206881
:1019F0001549884223D11548016851F4804101609E
:101A0000006810F48040009000981148016851F47B
:101A100000310160006810F40030009000984FF42D
:101A2000C0600190022002900020039003200490E7
:101A30000720059001A95FF09040FFF7F9FD06B07F
:101A400010BD0000A4000020003801401810024022
:101A50001410024010B586B002A81021FFF7E4FD73
:101A60002448D0E90023CDE90023234C23482060FB
:101A7000472060600020A0602820E06000202061F6
:101A80000020A061200000F03DF8002801D0FFF701
:101A9000C9FD4FF48050029002A9200000F037F9F0
:101AA000002801D0FFF7BEFD00200090002001902B
:101AB0006946200000F056FF002801D0FFF7B2FD74
:101AC00006B010BD80B500680C49884211D10C48A1
:101AD000016851F002010160006810F002000090FE
:101AE0000098002200211D20FFF7B1F81D20FFF70C
:101AF000BFF801BD082E0008880100200004004046
:101B00001C10024010B50400002C01D1012014E08B
:101B100094F83D00002805D1002084F83C00200006
:101B2000FFF7D0FF022084F83D00211D206800F05F
:101B300062F9012084F83D00002010BD0168C968E9
:101B400051F001010268D1600168896811F0070154
:101B5000062905D00168096851F00101006801609B
:101B6000002070470168C968490849000268D160CF
:101B70000168096A41F2111211420BD10168096A28
:101B800040F24442114205D1016809684908490000
:101B9000006801600020704710B5040020680069EB
:101BA00080071AD52068C068800716D57FF002002C
:101BB00021680861012020772068806910F0030FF8
:101BC00003D0200000F01EFF05E0200000F01BFF06
:101BD000200000F019FF00202077206800694007EE
:101BE0001AD52068C068400716D57FF00400216828
:101BF0000861022020772068806910F4407F03D0BC
:101C0000200000F0FFFE05E0200000F0FCFE2000B8
:101C100000F0FAFE002020772068006900071AD53E
:101C20002068C068000716D57FF0080021680861A9
:101C3000042020772068C06910F0030F03D0200033
:101C400000F0E0FE05E0200000F0DDFE200000F0E6
:101C5000DBFE0020207720680069C0061AD52068C6
:101C6000C068C00616D57FF0100021680861082002
:101C700020772068C06910F4407F03D0200000F076
:101C8000C1FE05E0200000F0BEFE200000F0BCFE1A
:101C90000020207720680069C0070AD52068C06846
:101CA000C00706D57FF0010021680861200000F020
:101CB000ACFE2068006900060AD52068C0680006EE
:101CC00006D57FF0800021680861200000F09EFEAC
:101CD0002068006940060AD52068C068400606D51D
:101CE0007FF0400021680861200000F090FE20682D
:101CF000006980060AD52068C068800606D57FF096
:101D0000200021680861200000F082FE10BD10B59F
:101D1000040094F83C00012801D102206AE001206F
:101D200084F83C00022084F83D002068806830F090
:101D3000770030F47F4022689060086800284DD01A
:101D400010284BD0202849D0302847D040283BD0FD
:101D5000502825D060282DD0702807D0B0F5805F9E
:101D600003D0B0F5005F0ED03DE03CE0CB684A68A0
:101D70008968206800F0D1F82068806850F077000A
:101D8000216888602FE0CB684A688968206800F085
:101D9000C4F82068806850F480402168886022E0A0
:101DA000CA684968206800F08BF85021206800F06C
:101DB000ACF818E0CA684968206800F093F8602120
:101DC000206800F0A2F80EE0CA684968206800F0B8
:101DD00077F84021206800F098F804E0096820684E
:101DE00000F093F8FFE7012084F83D00002084F81C
:101DF0003C00002010BD0368B0F1804F0BD0264A94
:101E0000904208D0254A904205D0254A904202D0FF
:101E1000244A904203D133F070034A681343B0F16F
:101E2000804F1DD01C4A90421AD01C4A904217D0B5
:101E30001B4A904214D01C4A904211D01B4A904237
:101E40000ED01B4A90420BD01A4A904208D01A4A30
:101E5000904205D0194A904202D0124A904203D1D2
:101E600033F44073CA68134333F080034A69134361
:101E700003608A68C2620A6882620E4A904205D094
:101E80000D4A904202D00D4A904201D10969016386
:101E9000012141617047000000040040000800403B
:101EA000000C0040005C014000180040001C004095
:101EB0000020004000400140004401400048014033
:101EC00010B4046A036A5B085B000362836933F041
:101ED000F00353EA021334F00A04214383610162E0
:101EE00010BC704710B4036A33F0100303628369B7
:101EF000046A33F4704353EA023334F0A00454EA22
:101F000001148361046210BC7047826832F0700271
:101F100051F0070111438160704710B4846834F4B4
:101F20007F44114351EA03212143816010BC704773
:101F300010B504000021200000F021F841F28833A0
:101F4000022214F108013B48FEF714FFA068A168C3
:101F50005FEA3140A0600121200000F010F820006D
:101F600000F024F8200000F042F8200000F06AF8A9
:101F7000200000F072F8200000F076F810BD10B5D7
:101F80000400C9B2012908D10122A1882068FFF705
:101F90002AFC01202073207B07E00022A188206812
:101FA000FFF721FC00202073207B10BD10B504003A
:101FB000A06800280DD5A1681F4850EA914000F0A4
:101FC00029FD00221D4B00F033FD00F003FE2061CF
:101FD0000AE0A068800C00F01DFD0022174B00F005
:101FE00027FD00F0F7FD206194ED040A10BD10B547
:101FF0000400A06800040ED5A068C0F30A1050F4D5
:10200000784000F007FD00220D4B00F011FD00F0BC
:10201000E1FD60610BE0A068C0F30A1000F0FAFC7B
:102020000022074B00F004FD00F0D4FD606194ED48
:10203000050A10BD2401002000C0FFFF0000D03FB2
:102040000000B03F8168C1F38101002901D0012166
:1020500000E000210176002070478168490811F0F6
:1020600001014176407E7047017A11F001018176CD
:10207000807E70470248016851F4807101607047AA
:10208000007000402DE9FC41040000200020206881
:10209000C0037DD50026DFF8C4512868C00009D4EC
:1020A000286850F080502860286810F08050009018
:1020B00000980126DFF8A8713868C00511D4386887
:1020C00050F480703860FEF72BFD80463868C005FC
:1020D00007D4FEF725FDB0EB08006528F6D30320F2
:1020E000BAE0DFF88071386810F44070002842D000
:1020F000616811F4407188423DD0386830F4407016
:10210000DFF864114FF400420123B2FA82FC11EBB4
:102110008C0CCCF800300023B2FA82F211EB820171
:102120000B603860C00726D5FEF7FAFC80465FF0EA
:102130008040B0FA80F1B0FA80F151F04001C9B2AC
:102140004909022901D1396804E0B0FA80F1DFF8C9
:102150001C110968B0FA80F010F01F00C140C807D8
:1021600009D4FEF7DDFCB0EB080041F2893188426A
:10217000DDD3032070E0396831F4407160680143B9
:102180003960F6B2012E03D1286830F08050286003
:102190002078C00707D5DFF8D8100A6892089200A7
:1021A000A06802430A602078800707D5DFF8C010D6
:1021B0000A6832F44032E06802430A60207840073F
:1021C00007D5DFF8AC100A6832F4402220690243D8
:1021D0000A602078800607D5DFF894100A6832F08C
:1021E0001002606902430A602068800307D5DFF8A7
:1021F00084100A6832F48002A06A02430A602078E0
:10220000400607D5DFF868100A6832F02002A0699E
:1022100002430A602078000607D5DFF858100A68E4
:1022200032F44042E06902430A602068000507D5A5
:10223000DFF840100A6822F07842206A02430A6000
:102240002068400507D5DFF828100A6832F0400200
:10225000606A02430A600020BDE8F6811C1002405B
:10226000007000402010024000044242241002404E
:10227000301002400410024080B50169491C016120
:10228000C1680269914204D2012281880068FFF787
:10229000AAFA01BD80B500210161012101758068A4
:1022A000FFF74CFC1148016831F00401016010484F
:1022B000016851F00401016001BD10B50400002067
:1022C000206100202075A068FFF74CFC0022A18847
:1022D0002068FFF788FA0648016831F004010160C0
:1022E0000248016851F00401016010BD0C04014076
:1022F0000804014000B500BF13009646944610390B
:1023000028BFA0E80C50FAD85FEA417C28BF0CC077
:1023100048BF40F8042BC90728BF20F8022B48BF4C
:1023200000F8012B00BD000081B00B48016851F09E
:1023300001010160006810F001000090009807485A
:10234000016851F080510160006810F080500090E9
:10235000009801B0704700BF181002401C100240E6
:1023600010B50400002C01D101205EE0607F002840
:1023700004D1002020772000FFF7FFFA02206077C9
:10238000CA2021684862532021684862200000F07A
:102390006AF8002806D0FF20216848620420607790
:1023A000012042E020688168DFF880000140206859
:1023B0008160206881686268206902436069024325
:1023C000114320688160E068216808612068006925
:1023D000A16850EA0140216808612068C06830F0B7
:1023E00080002168C8602068806880060BD42000C7
:1023F00000F01EF8002806D0FF2021684862042063
:102400006077012011E02068006C30F480202168A2
:1024100008642068016CA069014320680164FF2002
:102420002168486201206077002010BDBFFF8FFF48
:1024300038B5040000202068C06830F0A000216892
:10244000C860FEF76DFB05002068C068800608D4F0
:10245000FEF766FB401B40F2E9318842F4D30320CB
:1024600000E0002032BD38B5040000202068C068BC
:10247000400613D45FF0FF302168C860FEF750FBC0
:1024800005002068C068400608D4FEF749FB401BE1
:1024900040F2E9318842F4D3032000E0002032BD4D
:1024A00010B50400002C01D1012035E0A0690028FE
:1024B000FFD1606F002805D1002084F87000200053
:1024C000FFF78EFA2420606720680068400840000B
:1024D00021680860200000F020F8012801D10120C7
:1024E0001AE0606A002802D0200000F041F920685C
:1024F000406830F49040216848602068806830F07F
:102500002A00216888602068006850F00100216876
:102510000860200000F099F910BD38B504000021D2
:102520000025A2682069024360690243E069024312
:1025300020680368874803401A43206802602068C7
:10254000426832F44052E068024320684260A26967
:10255000206A02432068806830F4306002432068BB
:10256000826020687C4A904215D17C48006810F057
:102570000300002805D0022809D006D3032802D082
:1025800007E0012044E0022042E0042040E008206F
:102590003EE010203CE02068714A904219D16F481B
:1025A000006810F44030002809D0B0F5803F0AD010
:1025B000B0F5003F09D0B0F5403F02D007E0002061
:1025C00026E0022024E0042022E0082020E0102061
:1025D0001EE02068634A904219D16048006810F4F8
:1025E0004020002809D0B0F5802F0AD0B0F5002F88
:1025F00009D0B0F5402F02D007E0002008E002200B
:1026000006E0042004E0082002E0102000E0102092
:10261000E269B2F5004F4FD1C0B2002808D00128BE
:1026200011D002281AD0042821D008282AD032E05C
:10263000FEF703FA6168490811EB40016068B1FBDD
:10264000F0F189B228E0FEF708FA6168490811EB59
:1026500040016068B1FBF0F189B21DE06068424959
:1026600011EB50016068B1FBF0F189B214E0FEF7A4
:10267000ADF96168490811EB40016068B1FBF0F108
:1026800089B209E06068400810F580306168B0FBED
:10269000F1F189B200E001254FF6F072B1F11000BE
:1026A000904207D20A40C1F34200024392B220682E
:1026B000C26048E0012546E0C0B2002808D00128E9
:1026C00010D0022818D004281FD0082827D02FE0C7
:1026D000FEF7B3F9616810EB51006168B0FBF1F1EE
:1026E00089B226E0FEF7B9F9616810EB5100616824
:1026F000B0FBF1F189B21CE060681C4911EB50019C
:102700006068B1FBF0F189B213E0FEF75FF9616830
:1027100010EB51006168B0FBF1F189B209E060682B
:10272000400810F500406168B0FBF1F189B200E0AB
:102730000125B1F110004FF6F072904202D22068EC
:10274000C16000E0012500202066002060662800AE
:10275000C0B232BDF369FFFF0038014030100240C3
:1027600000440040004800400024F40000127A00B9
:1027700090F82410C90707D501684A6832F400327E
:10278000816A0A4301684A6090F82410890707D5D6
:1027900001684A6832F48032C16A0A4301684A60BB
:1027A00090F82410490707D501684A6832F480225E
:1027B000016B0A4301684A6090F82410090707D5A5
:1027C00001684A6832F40042416B0A4301684A607A
:1027D00090F82410C90607D501688A6832F480523F
:1027E000816B0A4301688A6090F82410890607D536
:1027F00001688A6832F40052C16B0A4301688A603A
:1028000090F82410490613D501684A6832F4801202
:10281000016C0A4301684A60016CB1F5801F07D161
:1028200001684A6832F4C002416C0A4301684A6098
:1028300090F82410090607D501684A6832F400228E
:10284000816C0A4300684260704738B5040000207C
:10285000E067FEF765F905002068006800070DD500
:102860007FF07E4000902B0000225FF400112000DA
:1028700000F01FF8002801D0032019E0206800684C
:1028800040070DD57FF07E4000902B0000225FF4C2
:102890008001200000F00DF8002801D0032007E09F
:1028A000202060672020A067002084F870000020AE
:1028B00032BD2DE9F04105000E0090461F00069C38
:1028C0002868C0693040B04201D1012000E00020FA
:1028D0004146C9B2884241D114F1010FF0D0FEF750
:1028E0001FF9C01B844201D3002C14D12868006852
:1028F00030F4D0702968086028688068400840007B
:1029000029688860202068672020A867002085F853
:102910007000032023E0286800684007D0D52868AD
:10292000C0690005CCD54FF40060296808622868AA
:10293000006830F4D0702968086028688068400812
:10294000400029688860202068672020A867202030
:10295000E867002085F87000032000E00020BDE853
:10296000F081000010B490F83C20012A01D102202F
:1029700038E0012280F83C20022280F83D200268E5
:1029800054680268936834F070040A68144302685B
:1029900054600268B2F1804F17D00268134CA24213
:1029A00013D00268124CA2420FD00268114CA2420E
:1029B0000BD00268104CA24207D002680F4CA24212
:1029C00003D002680E4CA24205D133F0800349685F
:1029D0000B4301688B60012180F83D10002180F8D5
:1029E0003C10002010BC70470000000000040040B4
:1029F00000080040000C004000180040004001406A
:102A0000005C0140704770477047704770477047DF
:102A100070470000014648B1B0FA80F18840C91CF7
:102A2000C1F58461090501EBD02140057047000024
:102A3000B0B581EA030C0CF0004C40F2FF7515EACA
:102A400011541DBF15EA1357AC42AF4239E0E419E7
:102A500023EA455343F48013C90241F0004141EA9F
:102A6000505EC7021100A7FB020200284FF00000D1
:102A7000EEFB01204FF00001E3FB072118BF42F0FD
:102A80000102401800214941E3FB0E01A4F58064D6
:102A90000F0302D252004041494154F101046CDD60
:102AA000470872F1004250F1000051EB0451A1F5CA
:102AB00080115CBF41EA0C01B0BD4CEA0551002019
:102AC000B0BD05EA1357AC4214BFAF4241E050EA33
:102AD000410E1CBF52EA430E02E061460020B0BD29
:102AE00024423C441BD15FEA070EF6D0090302BF23
:102AF00001460020AEF1140EB1FA81F7AEEB0704E7
:102B000001FA07FE0C37C7F1200100FA07F7C840A9
:102B10004EEA000E23EA455343F48013A2E733F054
:102B20000043B3FA83F704BFB2FA82FE77440B3F47
:102B3000E41BB7F1200E2FBF02FA0EF3BB40C7F122
:102B4000200E22FA0EFE38BF43EA0E03BA40641C80
:102B500082E750EA410E14BF52EA430E6FF00001C3
:102B60004FF4001717EB430F8ABF194617EB410FBD
:102B7000B5E74CEA05510020B0BDD4F10104B4F131
:102B800020070FDAC4F12007520828BF42F00102E3
:102B900010FA07F501FA07F7E1BF2A43E04038438E
:102BA000E1400FE0352C98DCC7F1200452EA4002E6
:102BB00020FA07F218BF42F0010231FA07F0A140F3
:102BC0000A43002172F1004250F1000051EB0C0168
:102BD000B0BD000001F000428B1AA3F16051B1F5C5
:102BE000801F0ADBB1F17F6F1FD242EAC102C10030
:102BF00071F1004142EB507070470B15C3F10903AE
:102C0000212B10D2890241EA9051800201284941CA
:102C100041F0004121FA03F0C3F12003994071F122
:102C2000004150417047100070476FF0000013EBF7
:102C3000103F5CBF000E42EAC050704780B5FDF700
:102C40001CFF01BDFEE7FEE7FEE7FEE770477047A9
:102C5000704780B500F01EF801BD80B50420FEF776
:102C6000CBFD01BD80B50820FEF7C6FD01BD80B5D6
:102C70000548FEF791FF05480068FFF7FDFA044894
:102C80000068FFF7F9FA01BD8801002078000020F4
:102C90009400002003480168034A127889180160F3
:102CA000704700BFE8010020A000002030B5016897
:102CB00084684218416802EB5103C9070BD54C44A4
:102CC00009E012F9011B12F8015B002904F8015B0D
:102CD00005D5491CF9D19A42F3D10C3030BD491EBB
:102CE000F1D5F8E710B5074979441831064C7C4412
:102CF000163404E00A68081D114488470146A142C1
:102D0000F8D110BD2C000000480000004EF688519C
:102D1000CEF20001086840F470000860BFF34F8FE6
:102D2000BFF36F8F4FF00070E1EE100A70470000A4
:102D3000B7DDFFFF48010000A400002000000000F4
:102D40006DFFFFFFC0010000B40000000000002084
:102D500000F00DF8002801D0FFF7C4FFAFF30080AA
:102D60000020AFF30080FEF7A5FB00F002F8012081
:102D7000704700F001B800000746384600F002F83E
:102D8000FBE7000080B5AFF30080024A1100182075
:102D9000ABBEFBE7260002000448016851F4700155
:102DA00001605FF0006002490860704788ED00E054
:102DB00008ED00E002030405060708090A0B0C0DE4
:102DC0000E0F10100102030405060708090A0B0C78
:102DD0000D0E0F10000000000000000001020304AF
:102DE000060708090148804701480047992D000857
:102DF000F52D0008AFF30080FFF788FFFFF7A8FF6D
:102E000000000000010203040000000000000000B8
:102E1000FFF7FEBFFFF7FEBFFFF7FEBFFFF7FEBFE6
:102E2000FFF7FEBFFFF7FEBFFFF7FEBFFFF7FEBFD6
:102E3000FFF7FEBFFFF7FEBFFFF7FEBFFFF7FEBFC6
:102E4000FFF7FEBFFFF7FEBFFFF7FEBFFFF7FEBFB6
:102E5000FFF7FEBFFFF7FEBFFFF7FEBFFFF7FEBFA6
:102E6000FFF7FEBFFFF7FEBFFFF7FEBFFFF7FEBF96
:102E7000FFF7FEBFFFF7FEBFFFF7FEBFFFF7FEBF86
:102E8000FFF7FEBFFFF7FEBFFFF7FEBFFFF7FEBF76
:102E9000FFF7FEBFFFF7FEBFFFF7FEBFFFF7FEBF66
:102EA000FFF7FEBFFFF7FEBFFFF7FEBFFFF7FEBF56
:102EB000FFF7FEBFFFF7FEBFFFF7FEBFFFF7FEBF46
:102EC000FFF7FEBFFFF7FEBFFFF7FEBFFFF7FEBF36
:102ED000FFF7FEBFFFF7FEBFFFF7FEBFFFF7FEBF26
:102EE000FFF7FEBFFFF7FEBFFFF7FEBFFFF7FEBF16
:102EF000FFF7FEBFFFF7FEBFFFF7FEBFFFF7FEBF06
:102F0000FFF7FEBF040004004801E60005200004AE
:102F1000004802E90008200000200004004804E9FD
:102F2000000340000020FD00014801FD000488016D
:102F30000020FFF9000001FD000360000020FD00FB
:102F4000014802FD000488010020FFF9000001FD96
:0E2F500000047C00002010FC0003127A000137
:0400000508002DF5CD
:00000001FF
